{
	"atividade_07_02_2024/owner.sol": {
		"Owner": {
			"abi": [
				{
					"inputs": [],
					"stateMutability": "nonpayable",
					"type": "constructor"
				},
				{
					"anonymous": false,
					"inputs": [
						{
							"indexed": true,
							"internalType": "address",
							"name": "oldOwner",
							"type": "address"
						},
						{
							"indexed": true,
							"internalType": "address",
							"name": "newOwner",
							"type": "address"
						}
					],
					"name": "OwnerSet",
					"type": "event"
				},
				{
					"inputs": [
						{
							"internalType": "address",
							"name": "newOwner",
							"type": "address"
						}
					],
					"name": "changeOwner",
					"outputs": [],
					"stateMutability": "nonpayable",
					"type": "function"
				},
				{
					"inputs": [],
					"name": "getOwner",
					"outputs": [
						{
							"internalType": "address",
							"name": "",
							"type": "address"
						}
					],
					"stateMutability": "view",
					"type": "function"
				},
				{
					"inputs": [],
					"name": "owner",
					"outputs": [
						{
							"internalType": "address",
							"name": "",
							"type": "address"
						}
					],
					"stateMutability": "view",
					"type": "function"
				},
				{
					"inputs": [],
					"name": "visitas",
					"outputs": [
						{
							"internalType": "uint256",
							"name": "",
							"type": "uint256"
						}
					],
					"stateMutability": "view",
					"type": "function"
				}
			],
			"devdoc": {
				"details": "Set & change owner",
				"kind": "dev",
				"methods": {
					"changeOwner(address)": {
						"details": "Change owner",
						"params": {
							"newOwner": "address of new owner"
						}
					},
					"constructor": {
						"details": "Set contract deployer as owner"
					},
					"getOwner()": {
						"details": "Return owner address ",
						"returns": {
							"_0": "address of owner"
						}
					}
				},
				"title": "Owner",
				"version": 1
			},
			"evm": {
				"assembly": "    /* \"atividade_07_02_2024/owner.sol\":121:1557  contract Owner {... */\n  mstore(0x40, 0x80)\n    /* \"atividade_07_02_2024/owner.sol\":995:1165  constructor() {... */\n  callvalue\n  dup1\n  iszero\n  tag_1\n  jumpi\n  0x00\n  dup1\n  revert\ntag_1:\n  pop\n    /* \"atividade_07_02_2024/owner.sol\":1027:1037  msg.sender */\n  caller\n    /* \"atividade_07_02_2024/owner.sol\":1019:1024  owner */\n  0x00\n  dup1\n    /* \"atividade_07_02_2024/owner.sol\":1019:1037  owner = msg.sender */\n  0x0100\n  exp\n  dup2\n  sload\n  dup2\n  0xffffffffffffffffffffffffffffffffffffffff\n  mul\n  not\n  and\n  swap1\n  dup4\n  0xffffffffffffffffffffffffffffffffffffffff\n  and\n  mul\n  or\n  swap1\n  sstore\n  pop\n    /* \"atividade_07_02_2024/owner.sol\":1152:1157  owner */\n  0x00\n  dup1\n  sload\n  swap1\n  0x0100\n  exp\n  swap1\n  div\n  0xffffffffffffffffffffffffffffffffffffffff\n  and\n    /* \"atividade_07_02_2024/owner.sol\":1131:1158  OwnerSet(address(0), owner) */\n  0xffffffffffffffffffffffffffffffffffffffff\n  and\n    /* \"atividade_07_02_2024/owner.sol\":1148:1149  0 */\n  0x00\n    /* \"atividade_07_02_2024/owner.sol\":1131:1158  OwnerSet(address(0), owner) */\n  0xffffffffffffffffffffffffffffffffffffffff\n  and\n  0x342827c97908e5e2f71151c08502a66d44b6f758e3ac2f1de95f02eb95f0a735\n  mload(0x40)\n  mload(0x40)\n  dup1\n  swap2\n  sub\n  swap1\n  log3\n    /* \"atividade_07_02_2024/owner.sol\":121:1557  contract Owner {... */\n  dataSize(sub_0)\n  dup1\n  dataOffset(sub_0)\n  0x00\n  codecopy\n  0x00\n  return\nstop\n\nsub_0: assembly {\n        /* \"atividade_07_02_2024/owner.sol\":121:1557  contract Owner {... */\n      mstore(0x40, 0x80)\n      callvalue\n      dup1\n      iszero\n      tag_1\n      jumpi\n      0x00\n      dup1\n      revert\n    tag_1:\n      pop\n      jumpi(tag_2, lt(calldatasize, 0x04))\n      shr(0xe0, calldataload(0x00))\n      dup1\n      0x658cb40b\n      eq\n      tag_3\n      jumpi\n      dup1\n      0x893d20e8\n      eq\n      tag_4\n      jumpi\n      dup1\n      0x8da5cb5b\n      eq\n      tag_5\n      jumpi\n      dup1\n      0xa6f9dae1\n      eq\n      tag_6\n      jumpi\n    tag_2:\n      0x00\n      dup1\n      revert\n        /* \"atividade_07_02_2024/owner.sol\":169:191  uint256 public visitas */\n    tag_3:\n      tag_7\n      tag_8\n      jump\t// in\n    tag_7:\n      mload(0x40)\n      tag_9\n      swap2\n      swap1\n      tag_10\n      jump\t// in\n    tag_9:\n      mload(0x40)\n      dup1\n      swap2\n      sub\n      swap1\n      return\n        /* \"atividade_07_02_2024/owner.sol\":1474:1555  function getOwner() external view returns (address) {... */\n    tag_4:\n      tag_11\n      tag_12\n      jump\t// in\n    tag_11:\n      mload(0x40)\n      tag_13\n      swap2\n      swap1\n      tag_14\n      jump\t// in\n    tag_13:\n      mload(0x40)\n      dup1\n      swap2\n      sub\n      swap1\n      return\n        /* \"atividade_07_02_2024/owner.sol\":143:163  address public owner */\n    tag_5:\n      tag_15\n      tag_16\n      jump\t// in\n    tag_15:\n      mload(0x40)\n      tag_17\n      swap2\n      swap1\n      tag_14\n      jump\t// in\n    tag_17:\n      mload(0x40)\n      dup1\n      swap2\n      sub\n      swap1\n      return\n        /* \"atividade_07_02_2024/owner.sol\":1256:1385  function changeOwner(address newOwner) public onlyOwner {... */\n    tag_6:\n      tag_18\n      0x04\n      dup1\n      calldatasize\n      sub\n      dup2\n      add\n      swap1\n      tag_19\n      swap2\n      swap1\n      tag_20\n      jump\t// in\n    tag_19:\n      tag_21\n      jump\t// in\n    tag_18:\n      stop\n        /* \"atividade_07_02_2024/owner.sol\":169:191  uint256 public visitas */\n    tag_8:\n      sload(0x01)\n      dup2\n      jump\t// out\n        /* \"atividade_07_02_2024/owner.sol\":1474:1555  function getOwner() external view returns (address) {... */\n    tag_12:\n        /* \"atividade_07_02_2024/owner.sol\":1517:1524  address */\n      0x00\n        /* \"atividade_07_02_2024/owner.sol\":1543:1548  owner */\n      dup1\n      0x00\n      swap1\n      sload\n      swap1\n      0x0100\n      exp\n      swap1\n      div\n      0xffffffffffffffffffffffffffffffffffffffff\n      and\n        /* \"atividade_07_02_2024/owner.sol\":1536:1548  return owner */\n      swap1\n      pop\n        /* \"atividade_07_02_2024/owner.sol\":1474:1555  function getOwner() external view returns (address) {... */\n      swap1\n      jump\t// out\n        /* \"atividade_07_02_2024/owner.sol\":143:163  address public owner */\n    tag_16:\n      0x00\n      dup1\n      sload\n      swap1\n      0x0100\n      exp\n      swap1\n      div\n      0xffffffffffffffffffffffffffffffffffffffff\n      and\n      dup2\n      jump\t// out\n        /* \"atividade_07_02_2024/owner.sol\":1256:1385  function changeOwner(address newOwner) public onlyOwner {... */\n    tag_21:\n        /* \"atividade_07_02_2024/owner.sol\":836:841  owner */\n      0x00\n      dup1\n      sload\n      swap1\n      0x0100\n      exp\n      swap1\n      div\n      0xffffffffffffffffffffffffffffffffffffffff\n      and\n        /* \"atividade_07_02_2024/owner.sol\":822:841  msg.sender == owner */\n      0xffffffffffffffffffffffffffffffffffffffff\n      and\n        /* \"atividade_07_02_2024/owner.sol\":822:832  msg.sender */\n      caller\n        /* \"atividade_07_02_2024/owner.sol\":822:841  msg.sender == owner */\n      0xffffffffffffffffffffffffffffffffffffffff\n      and\n      eq\n        /* \"atividade_07_02_2024/owner.sol\":814:889  require(msg.sender == owner, \"Somente o owner pode executar essa operacao\") */\n      tag_24\n      jumpi\n      mload(0x40)\n      0x08c379a000000000000000000000000000000000000000000000000000000000\n      dup2\n      mstore\n      0x04\n      add\n      tag_25\n      swap1\n      tag_26\n      jump\t// in\n    tag_25:\n      mload(0x40)\n      dup1\n      swap2\n      sub\n      swap1\n      revert\n    tag_24:\n        /* \"atividade_07_02_2024/owner.sol\":899:906  visitas */\n      0x01\n      0x00\n        /* \"atividade_07_02_2024/owner.sol\":899:908  visitas++ */\n      dup2\n      sload\n      dup1\n      swap3\n      swap2\n      swap1\n      tag_27\n      swap1\n      tag_28\n      jump\t// in\n    tag_27:\n      swap2\n      swap1\n      pop\n      sstore\n      pop\n        /* \"atividade_07_02_2024/owner.sol\":1343:1351  newOwner */\n      dup1\n        /* \"atividade_07_02_2024/owner.sol\":1327:1352  OwnerSet(owner, newOwner) */\n      0xffffffffffffffffffffffffffffffffffffffff\n      and\n        /* \"atividade_07_02_2024/owner.sol\":1336:1341  owner */\n      0x00\n      dup1\n      sload\n      swap1\n      0x0100\n      exp\n      swap1\n      div\n      0xffffffffffffffffffffffffffffffffffffffff\n      and\n        /* \"atividade_07_02_2024/owner.sol\":1327:1352  OwnerSet(owner, newOwner) */\n      0xffffffffffffffffffffffffffffffffffffffff\n      and\n      0x342827c97908e5e2f71151c08502a66d44b6f758e3ac2f1de95f02eb95f0a735\n      mload(0x40)\n      mload(0x40)\n      dup1\n      swap2\n      sub\n      swap1\n      log3\n        /* \"atividade_07_02_2024/owner.sol\":1370:1378  newOwner */\n      dup1\n        /* \"atividade_07_02_2024/owner.sol\":1362:1367  owner */\n      0x00\n      dup1\n        /* \"atividade_07_02_2024/owner.sol\":1362:1378  owner = newOwner */\n      0x0100\n      exp\n      dup2\n      sload\n      dup2\n      0xffffffffffffffffffffffffffffffffffffffff\n      mul\n      not\n      and\n      swap1\n      dup4\n      0xffffffffffffffffffffffffffffffffffffffff\n      and\n      mul\n      or\n      swap1\n      sstore\n      pop\n        /* \"atividade_07_02_2024/owner.sol\":1256:1385  function changeOwner(address newOwner) public onlyOwner {... */\n      pop\n      jump\t// out\n        /* \"#utility.yul\":7:84   */\n    tag_30:\n        /* \"#utility.yul\":44:51   */\n      0x00\n        /* \"#utility.yul\":73:78   */\n      dup2\n        /* \"#utility.yul\":62:78   */\n      swap1\n      pop\n        /* \"#utility.yul\":7:84   */\n      swap2\n      swap1\n      pop\n      jump\t// out\n        /* \"#utility.yul\":90:208   */\n    tag_31:\n        /* \"#utility.yul\":177:201   */\n      tag_47\n        /* \"#utility.yul\":195:200   */\n      dup2\n        /* \"#utility.yul\":177:201   */\n      tag_30\n      jump\t// in\n    tag_47:\n        /* \"#utility.yul\":172:175   */\n      dup3\n        /* \"#utility.yul\":165:202   */\n      mstore\n        /* \"#utility.yul\":90:208   */\n      pop\n      pop\n      jump\t// out\n        /* \"#utility.yul\":214:436   */\n    tag_10:\n        /* \"#utility.yul\":307:311   */\n      0x00\n        /* \"#utility.yul\":345:347   */\n      0x20\n        /* \"#utility.yul\":334:343   */\n      dup3\n        /* \"#utility.yul\":330:348   */\n      add\n        /* \"#utility.yul\":322:348   */\n      swap1\n      pop\n        /* \"#utility.yul\":358:429   */\n      tag_49\n        /* \"#utility.yul\":426:427   */\n      0x00\n        /* \"#utility.yul\":415:424   */\n      dup4\n        /* \"#utility.yul\":411:428   */\n      add\n        /* \"#utility.yul\":402:408   */\n      dup5\n        /* \"#utility.yul\":358:429   */\n      tag_31\n      jump\t// in\n    tag_49:\n        /* \"#utility.yul\":214:436   */\n      swap3\n      swap2\n      pop\n      pop\n      jump\t// out\n        /* \"#utility.yul\":442:568   */\n    tag_32:\n        /* \"#utility.yul\":479:486   */\n      0x00\n        /* \"#utility.yul\":519:561   */\n      0xffffffffffffffffffffffffffffffffffffffff\n        /* \"#utility.yul\":512:517   */\n      dup3\n        /* \"#utility.yul\":508:562   */\n      and\n        /* \"#utility.yul\":497:562   */\n      swap1\n      pop\n        /* \"#utility.yul\":442:568   */\n      swap2\n      swap1\n      pop\n      jump\t// out\n        /* \"#utility.yul\":574:670   */\n    tag_33:\n        /* \"#utility.yul\":611:618   */\n      0x00\n        /* \"#utility.yul\":640:664   */\n      tag_52\n        /* \"#utility.yul\":658:663   */\n      dup3\n        /* \"#utility.yul\":640:664   */\n      tag_32\n      jump\t// in\n    tag_52:\n        /* \"#utility.yul\":629:664   */\n      swap1\n      pop\n        /* \"#utility.yul\":574:670   */\n      swap2\n      swap1\n      pop\n      jump\t// out\n        /* \"#utility.yul\":676:794   */\n    tag_34:\n        /* \"#utility.yul\":763:787   */\n      tag_54\n        /* \"#utility.yul\":781:786   */\n      dup2\n        /* \"#utility.yul\":763:787   */\n      tag_33\n      jump\t// in\n    tag_54:\n        /* \"#utility.yul\":758:761   */\n      dup3\n        /* \"#utility.yul\":751:788   */\n      mstore\n        /* \"#utility.yul\":676:794   */\n      pop\n      pop\n      jump\t// out\n        /* \"#utility.yul\":800:1022   */\n    tag_14:\n        /* \"#utility.yul\":893:897   */\n      0x00\n        /* \"#utility.yul\":931:933   */\n      0x20\n        /* \"#utility.yul\":920:929   */\n      dup3\n        /* \"#utility.yul\":916:934   */\n      add\n        /* \"#utility.yul\":908:934   */\n      swap1\n      pop\n        /* \"#utility.yul\":944:1015   */\n      tag_56\n        /* \"#utility.yul\":1012:1013   */\n      0x00\n        /* \"#utility.yul\":1001:1010   */\n      dup4\n        /* \"#utility.yul\":997:1014   */\n      add\n        /* \"#utility.yul\":988:994   */\n      dup5\n        /* \"#utility.yul\":944:1015   */\n      tag_34\n      jump\t// in\n    tag_56:\n        /* \"#utility.yul\":800:1022   */\n      swap3\n      swap2\n      pop\n      pop\n      jump\t// out\n        /* \"#utility.yul\":1109:1226   */\n    tag_36:\n        /* \"#utility.yul\":1218:1219   */\n      0x00\n        /* \"#utility.yul\":1215:1216   */\n      dup1\n        /* \"#utility.yul\":1208:1220   */\n      revert\n        /* \"#utility.yul\":1355:1477   */\n    tag_38:\n        /* \"#utility.yul\":1428:1452   */\n      tag_61\n        /* \"#utility.yul\":1446:1451   */\n      dup2\n        /* \"#utility.yul\":1428:1452   */\n      tag_33\n      jump\t// in\n    tag_61:\n        /* \"#utility.yul\":1421:1426   */\n      dup2\n        /* \"#utility.yul\":1418:1453   */\n      eq\n        /* \"#utility.yul\":1408:1471   */\n      tag_62\n      jumpi\n        /* \"#utility.yul\":1467:1468   */\n      0x00\n        /* \"#utility.yul\":1464:1465   */\n      dup1\n        /* \"#utility.yul\":1457:1469   */\n      revert\n        /* \"#utility.yul\":1408:1471   */\n    tag_62:\n        /* \"#utility.yul\":1355:1477   */\n      pop\n      jump\t// out\n        /* \"#utility.yul\":1483:1622   */\n    tag_39:\n        /* \"#utility.yul\":1529:1534   */\n      0x00\n        /* \"#utility.yul\":1567:1573   */\n      dup2\n        /* \"#utility.yul\":1554:1574   */\n      calldataload\n        /* \"#utility.yul\":1545:1574   */\n      swap1\n      pop\n        /* \"#utility.yul\":1583:1616   */\n      tag_64\n        /* \"#utility.yul\":1610:1615   */\n      dup2\n        /* \"#utility.yul\":1583:1616   */\n      tag_38\n      jump\t// in\n    tag_64:\n        /* \"#utility.yul\":1483:1622   */\n      swap3\n      swap2\n      pop\n      pop\n      jump\t// out\n        /* \"#utility.yul\":1628:1957   */\n    tag_20:\n        /* \"#utility.yul\":1687:1693   */\n      0x00\n        /* \"#utility.yul\":1736:1738   */\n      0x20\n        /* \"#utility.yul\":1724:1733   */\n      dup3\n        /* \"#utility.yul\":1715:1722   */\n      dup5\n        /* \"#utility.yul\":1711:1734   */\n      sub\n        /* \"#utility.yul\":1707:1739   */\n      slt\n        /* \"#utility.yul\":1704:1823   */\n      iszero\n      tag_66\n      jumpi\n        /* \"#utility.yul\":1742:1821   */\n      tag_67\n      tag_36\n      jump\t// in\n    tag_67:\n        /* \"#utility.yul\":1704:1823   */\n    tag_66:\n        /* \"#utility.yul\":1862:1863   */\n      0x00\n        /* \"#utility.yul\":1887:1940   */\n      tag_68\n        /* \"#utility.yul\":1932:1939   */\n      dup5\n        /* \"#utility.yul\":1923:1929   */\n      dup3\n        /* \"#utility.yul\":1912:1921   */\n      dup6\n        /* \"#utility.yul\":1908:1930   */\n      add\n        /* \"#utility.yul\":1887:1940   */\n      tag_39\n      jump\t// in\n    tag_68:\n        /* \"#utility.yul\":1877:1940   */\n      swap2\n      pop\n        /* \"#utility.yul\":1833:1950   */\n      pop\n        /* \"#utility.yul\":1628:1957   */\n      swap3\n      swap2\n      pop\n      pop\n      jump\t// out\n        /* \"#utility.yul\":1963:2132   */\n    tag_40:\n        /* \"#utility.yul\":2047:2058   */\n      0x00\n        /* \"#utility.yul\":2081:2087   */\n      dup3\n        /* \"#utility.yul\":2076:2079   */\n      dup3\n        /* \"#utility.yul\":2069:2088   */\n      mstore\n        /* \"#utility.yul\":2121:2125   */\n      0x20\n        /* \"#utility.yul\":2116:2119   */\n      dup3\n        /* \"#utility.yul\":2112:2126   */\n      add\n        /* \"#utility.yul\":2097:2126   */\n      swap1\n      pop\n        /* \"#utility.yul\":1963:2132   */\n      swap3\n      swap2\n      pop\n      pop\n      jump\t// out\n        /* \"#utility.yul\":2138:2368   */\n    tag_41:\n        /* \"#utility.yul\":2278:2312   */\n      0x536f6d656e7465206f206f776e657220706f6465206578656375746172206573\n        /* \"#utility.yul\":2274:2275   */\n      0x00\n        /* \"#utility.yul\":2266:2272   */\n      dup3\n        /* \"#utility.yul\":2262:2276   */\n      add\n        /* \"#utility.yul\":2255:2313   */\n      mstore\n        /* \"#utility.yul\":2347:2360   */\n      0x7361206f7065726163616f000000000000000000000000000000000000000000\n        /* \"#utility.yul\":2342:2344   */\n      0x20\n        /* \"#utility.yul\":2334:2340   */\n      dup3\n        /* \"#utility.yul\":2330:2345   */\n      add\n        /* \"#utility.yul\":2323:2361   */\n      mstore\n        /* \"#utility.yul\":2138:2368   */\n      pop\n      jump\t// out\n        /* \"#utility.yul\":2374:2740   */\n    tag_42:\n        /* \"#utility.yul\":2516:2519   */\n      0x00\n        /* \"#utility.yul\":2537:2604   */\n      tag_72\n        /* \"#utility.yul\":2601:2603   */\n      0x2b\n        /* \"#utility.yul\":2596:2599   */\n      dup4\n        /* \"#utility.yul\":2537:2604   */\n      tag_40\n      jump\t// in\n    tag_72:\n        /* \"#utility.yul\":2530:2604   */\n      swap2\n      pop\n        /* \"#utility.yul\":2613:2706   */\n      tag_73\n        /* \"#utility.yul\":2702:2705   */\n      dup3\n        /* \"#utility.yul\":2613:2706   */\n      tag_41\n      jump\t// in\n    tag_73:\n        /* \"#utility.yul\":2731:2733   */\n      0x40\n        /* \"#utility.yul\":2726:2729   */\n      dup3\n        /* \"#utility.yul\":2722:2734   */\n      add\n        /* \"#utility.yul\":2715:2734   */\n      swap1\n      pop\n        /* \"#utility.yul\":2374:2740   */\n      swap2\n      swap1\n      pop\n      jump\t// out\n        /* \"#utility.yul\":2746:3165   */\n    tag_26:\n        /* \"#utility.yul\":2912:2916   */\n      0x00\n        /* \"#utility.yul\":2950:2952   */\n      0x20\n        /* \"#utility.yul\":2939:2948   */\n      dup3\n        /* \"#utility.yul\":2935:2953   */\n      add\n        /* \"#utility.yul\":2927:2953   */\n      swap1\n      pop\n        /* \"#utility.yul\":2999:3008   */\n      dup2\n        /* \"#utility.yul\":2993:2997   */\n      dup2\n        /* \"#utility.yul\":2989:3009   */\n      sub\n        /* \"#utility.yul\":2985:2986   */\n      0x00\n        /* \"#utility.yul\":2974:2983   */\n      dup4\n        /* \"#utility.yul\":2970:2987   */\n      add\n        /* \"#utility.yul\":2963:3010   */\n      mstore\n        /* \"#utility.yul\":3027:3158   */\n      tag_75\n        /* \"#utility.yul\":3153:3157   */\n      dup2\n        /* \"#utility.yul\":3027:3158   */\n      tag_42\n      jump\t// in\n    tag_75:\n        /* \"#utility.yul\":3019:3158   */\n      swap1\n      pop\n        /* \"#utility.yul\":2746:3165   */\n      swap2\n      swap1\n      pop\n      jump\t// out\n        /* \"#utility.yul\":3171:3351   */\n    tag_43:\n        /* \"#utility.yul\":3219:3296   */\n      0x4e487b7100000000000000000000000000000000000000000000000000000000\n        /* \"#utility.yul\":3216:3217   */\n      0x00\n        /* \"#utility.yul\":3209:3297   */\n      mstore\n        /* \"#utility.yul\":3316:3320   */\n      0x11\n        /* \"#utility.yul\":3313:3314   */\n      0x04\n        /* \"#utility.yul\":3306:3321   */\n      mstore\n        /* \"#utility.yul\":3340:3344   */\n      0x24\n        /* \"#utility.yul\":3337:3338   */\n      0x00\n        /* \"#utility.yul\":3330:3345   */\n      revert\n        /* \"#utility.yul\":3357:3590   */\n    tag_28:\n        /* \"#utility.yul\":3396:3399   */\n      0x00\n        /* \"#utility.yul\":3419:3443   */\n      tag_78\n        /* \"#utility.yul\":3437:3442   */\n      dup3\n        /* \"#utility.yul\":3419:3443   */\n      tag_30\n      jump\t// in\n    tag_78:\n        /* \"#utility.yul\":3410:3443   */\n      swap2\n      pop\n        /* \"#utility.yul\":3465:3531   */\n      0xffffffffffffffffffffffffffffffffffffffffffffffffffffffffffffffff\n        /* \"#utility.yul\":3458:3463   */\n      dup3\n        /* \"#utility.yul\":3455:3532   */\n      sub\n        /* \"#utility.yul\":3452:3555   */\n      tag_79\n      jumpi\n        /* \"#utility.yul\":3535:3553   */\n      tag_80\n      tag_43\n      jump\t// in\n    tag_80:\n        /* \"#utility.yul\":3452:3555   */\n    tag_79:\n        /* \"#utility.yul\":3582:3583   */\n      0x01\n        /* \"#utility.yul\":3575:3580   */\n      dup3\n        /* \"#utility.yul\":3571:3584   */\n      add\n        /* \"#utility.yul\":3564:3584   */\n      swap1\n      pop\n        /* \"#utility.yul\":3357:3590   */\n      swap2\n      swap1\n      pop\n      jump\t// out\n\n    auxdata: 0xa264697066735822122009f33388b6a3bf97d9cb99c54121b08e65b9ac26db832c5d2cce2376a4e514ca64736f6c63430008180033\n}\n",
				"bytecode": {
					"linkReferences": {},
					"object": "608060405234801561000f575f80fd5b50335f806101000a81548173ffffffffffffffffffffffffffffffffffffffff021916908373ffffffffffffffffffffffffffffffffffffffff1602179055505f8054906101000a900473ffffffffffffffffffffffffffffffffffffffff1673ffffffffffffffffffffffffffffffffffffffff165f73ffffffffffffffffffffffffffffffffffffffff167f342827c97908e5e2f71151c08502a66d44b6f758e3ac2f1de95f02eb95f0a73560405160405180910390a361049d806100d55f395ff3fe608060405234801561000f575f80fd5b506004361061004a575f3560e01c8063658cb40b1461004e578063893d20e81461006c5780638da5cb5b1461008a578063a6f9dae1146100a8575b5f80fd5b6100566100c4565b604051610063919061028b565b60405180910390f35b6100746100ca565b60405161008191906102e3565b60405180910390f35b6100926100f1565b60405161009f91906102e3565b60405180910390f35b6100c260048036038101906100bd919061032a565b610114565b005b60015481565b5f805f9054906101000a900473ffffffffffffffffffffffffffffffffffffffff16905090565b5f8054906101000a900473ffffffffffffffffffffffffffffffffffffffff1681565b5f8054906101000a900473ffffffffffffffffffffffffffffffffffffffff1673ffffffffffffffffffffffffffffffffffffffff163373ffffffffffffffffffffffffffffffffffffffff16146101a1576040517f08c379a0000000000000000000000000000000000000000000000000000000008152600401610198906103d5565b60405180910390fd5b60015f8154809291906101b390610420565b91905055508073ffffffffffffffffffffffffffffffffffffffff165f8054906101000a900473ffffffffffffffffffffffffffffffffffffffff1673ffffffffffffffffffffffffffffffffffffffff167f342827c97908e5e2f71151c08502a66d44b6f758e3ac2f1de95f02eb95f0a73560405160405180910390a3805f806101000a81548173ffffffffffffffffffffffffffffffffffffffff021916908373ffffffffffffffffffffffffffffffffffffffff16021790555050565b5f819050919050565b61028581610273565b82525050565b5f60208201905061029e5f83018461027c565b92915050565b5f73ffffffffffffffffffffffffffffffffffffffff82169050919050565b5f6102cd826102a4565b9050919050565b6102dd816102c3565b82525050565b5f6020820190506102f65f8301846102d4565b92915050565b5f80fd5b610309816102c3565b8114610313575f80fd5b50565b5f8135905061032481610300565b92915050565b5f6020828403121561033f5761033e6102fc565b5b5f61034c84828501610316565b91505092915050565b5f82825260208201905092915050565b7f536f6d656e7465206f206f776e657220706f64652065786563757461722065735f8201527f7361206f7065726163616f000000000000000000000000000000000000000000602082015250565b5f6103bf602b83610355565b91506103ca82610365565b604082019050919050565b5f6020820190508181035f8301526103ec816103b3565b9050919050565b7f4e487b71000000000000000000000000000000000000000000000000000000005f52601160045260245ffd5b5f61042a82610273565b91507fffffffffffffffffffffffffffffffffffffffffffffffffffffffffffffffff820361045c5761045b6103f3565b5b60018201905091905056fea264697066735822122009f33388b6a3bf97d9cb99c54121b08e65b9ac26db832c5d2cce2376a4e514ca64736f6c63430008180033",
					"opcodes": "PUSH1 0x80 PUSH1 0x40 MSTORE CALLVALUE DUP1 ISZERO PUSH2 0xF JUMPI PUSH0 DUP1 REVERT JUMPDEST POP CALLER PUSH0 DUP1 PUSH2 0x100 EXP DUP2 SLOAD DUP2 PUSH20 0xFFFFFFFFFFFFFFFFFFFFFFFFFFFFFFFFFFFFFFFF MUL NOT AND SWAP1 DUP4 PUSH20 0xFFFFFFFFFFFFFFFFFFFFFFFFFFFFFFFFFFFFFFFF AND MUL OR SWAP1 SSTORE POP PUSH0 DUP1 SLOAD SWAP1 PUSH2 0x100 EXP SWAP1 DIV PUSH20 0xFFFFFFFFFFFFFFFFFFFFFFFFFFFFFFFFFFFFFFFF AND PUSH20 0xFFFFFFFFFFFFFFFFFFFFFFFFFFFFFFFFFFFFFFFF AND PUSH0 PUSH20 0xFFFFFFFFFFFFFFFFFFFFFFFFFFFFFFFFFFFFFFFF AND PUSH32 0x342827C97908E5E2F71151C08502A66D44B6F758E3AC2F1DE95F02EB95F0A735 PUSH1 0x40 MLOAD PUSH1 0x40 MLOAD DUP1 SWAP2 SUB SWAP1 LOG3 PUSH2 0x49D DUP1 PUSH2 0xD5 PUSH0 CODECOPY PUSH0 RETURN INVALID PUSH1 0x80 PUSH1 0x40 MSTORE CALLVALUE DUP1 ISZERO PUSH2 0xF JUMPI PUSH0 DUP1 REVERT JUMPDEST POP PUSH1 0x4 CALLDATASIZE LT PUSH2 0x4A JUMPI PUSH0 CALLDATALOAD PUSH1 0xE0 SHR DUP1 PUSH4 0x658CB40B EQ PUSH2 0x4E JUMPI DUP1 PUSH4 0x893D20E8 EQ PUSH2 0x6C JUMPI DUP1 PUSH4 0x8DA5CB5B EQ PUSH2 0x8A JUMPI DUP1 PUSH4 0xA6F9DAE1 EQ PUSH2 0xA8 JUMPI JUMPDEST PUSH0 DUP1 REVERT JUMPDEST PUSH2 0x56 PUSH2 0xC4 JUMP JUMPDEST PUSH1 0x40 MLOAD PUSH2 0x63 SWAP2 SWAP1 PUSH2 0x28B JUMP JUMPDEST PUSH1 0x40 MLOAD DUP1 SWAP2 SUB SWAP1 RETURN JUMPDEST PUSH2 0x74 PUSH2 0xCA JUMP JUMPDEST PUSH1 0x40 MLOAD PUSH2 0x81 SWAP2 SWAP1 PUSH2 0x2E3 JUMP JUMPDEST PUSH1 0x40 MLOAD DUP1 SWAP2 SUB SWAP1 RETURN JUMPDEST PUSH2 0x92 PUSH2 0xF1 JUMP JUMPDEST PUSH1 0x40 MLOAD PUSH2 0x9F SWAP2 SWAP1 PUSH2 0x2E3 JUMP JUMPDEST PUSH1 0x40 MLOAD DUP1 SWAP2 SUB SWAP1 RETURN JUMPDEST PUSH2 0xC2 PUSH1 0x4 DUP1 CALLDATASIZE SUB DUP2 ADD SWAP1 PUSH2 0xBD SWAP2 SWAP1 PUSH2 0x32A JUMP JUMPDEST PUSH2 0x114 JUMP JUMPDEST STOP JUMPDEST PUSH1 0x1 SLOAD DUP2 JUMP JUMPDEST PUSH0 DUP1 PUSH0 SWAP1 SLOAD SWAP1 PUSH2 0x100 EXP SWAP1 DIV PUSH20 0xFFFFFFFFFFFFFFFFFFFFFFFFFFFFFFFFFFFFFFFF AND SWAP1 POP SWAP1 JUMP JUMPDEST PUSH0 DUP1 SLOAD SWAP1 PUSH2 0x100 EXP SWAP1 DIV PUSH20 0xFFFFFFFFFFFFFFFFFFFFFFFFFFFFFFFFFFFFFFFF AND DUP2 JUMP JUMPDEST PUSH0 DUP1 SLOAD SWAP1 PUSH2 0x100 EXP SWAP1 DIV PUSH20 0xFFFFFFFFFFFFFFFFFFFFFFFFFFFFFFFFFFFFFFFF AND PUSH20 0xFFFFFFFFFFFFFFFFFFFFFFFFFFFFFFFFFFFFFFFF AND CALLER PUSH20 0xFFFFFFFFFFFFFFFFFFFFFFFFFFFFFFFFFFFFFFFF AND EQ PUSH2 0x1A1 JUMPI PUSH1 0x40 MLOAD PUSH32 0x8C379A000000000000000000000000000000000000000000000000000000000 DUP2 MSTORE PUSH1 0x4 ADD PUSH2 0x198 SWAP1 PUSH2 0x3D5 JUMP JUMPDEST PUSH1 0x40 MLOAD DUP1 SWAP2 SUB SWAP1 REVERT JUMPDEST PUSH1 0x1 PUSH0 DUP2 SLOAD DUP1 SWAP3 SWAP2 SWAP1 PUSH2 0x1B3 SWAP1 PUSH2 0x420 JUMP JUMPDEST SWAP2 SWAP1 POP SSTORE POP DUP1 PUSH20 0xFFFFFFFFFFFFFFFFFFFFFFFFFFFFFFFFFFFFFFFF AND PUSH0 DUP1 SLOAD SWAP1 PUSH2 0x100 EXP SWAP1 DIV PUSH20 0xFFFFFFFFFFFFFFFFFFFFFFFFFFFFFFFFFFFFFFFF AND PUSH20 0xFFFFFFFFFFFFFFFFFFFFFFFFFFFFFFFFFFFFFFFF AND PUSH32 0x342827C97908E5E2F71151C08502A66D44B6F758E3AC2F1DE95F02EB95F0A735 PUSH1 0x40 MLOAD PUSH1 0x40 MLOAD DUP1 SWAP2 SUB SWAP1 LOG3 DUP1 PUSH0 DUP1 PUSH2 0x100 EXP DUP2 SLOAD DUP2 PUSH20 0xFFFFFFFFFFFFFFFFFFFFFFFFFFFFFFFFFFFFFFFF MUL NOT AND SWAP1 DUP4 PUSH20 0xFFFFFFFFFFFFFFFFFFFFFFFFFFFFFFFFFFFFFFFF AND MUL OR SWAP1 SSTORE POP POP JUMP JUMPDEST PUSH0 DUP2 SWAP1 POP SWAP2 SWAP1 POP JUMP JUMPDEST PUSH2 0x285 DUP2 PUSH2 0x273 JUMP JUMPDEST DUP3 MSTORE POP POP JUMP JUMPDEST PUSH0 PUSH1 0x20 DUP3 ADD SWAP1 POP PUSH2 0x29E PUSH0 DUP4 ADD DUP5 PUSH2 0x27C JUMP JUMPDEST SWAP3 SWAP2 POP POP JUMP JUMPDEST PUSH0 PUSH20 0xFFFFFFFFFFFFFFFFFFFFFFFFFFFFFFFFFFFFFFFF DUP3 AND SWAP1 POP SWAP2 SWAP1 POP JUMP JUMPDEST PUSH0 PUSH2 0x2CD DUP3 PUSH2 0x2A4 JUMP JUMPDEST SWAP1 POP SWAP2 SWAP1 POP JUMP JUMPDEST PUSH2 0x2DD DUP2 PUSH2 0x2C3 JUMP JUMPDEST DUP3 MSTORE POP POP JUMP JUMPDEST PUSH0 PUSH1 0x20 DUP3 ADD SWAP1 POP PUSH2 0x2F6 PUSH0 DUP4 ADD DUP5 PUSH2 0x2D4 JUMP JUMPDEST SWAP3 SWAP2 POP POP JUMP JUMPDEST PUSH0 DUP1 REVERT JUMPDEST PUSH2 0x309 DUP2 PUSH2 0x2C3 JUMP JUMPDEST DUP2 EQ PUSH2 0x313 JUMPI PUSH0 DUP1 REVERT JUMPDEST POP JUMP JUMPDEST PUSH0 DUP2 CALLDATALOAD SWAP1 POP PUSH2 0x324 DUP2 PUSH2 0x300 JUMP JUMPDEST SWAP3 SWAP2 POP POP JUMP JUMPDEST PUSH0 PUSH1 0x20 DUP3 DUP5 SUB SLT ISZERO PUSH2 0x33F JUMPI PUSH2 0x33E PUSH2 0x2FC JUMP JUMPDEST JUMPDEST PUSH0 PUSH2 0x34C DUP5 DUP3 DUP6 ADD PUSH2 0x316 JUMP JUMPDEST SWAP2 POP POP SWAP3 SWAP2 POP POP JUMP JUMPDEST PUSH0 DUP3 DUP3 MSTORE PUSH1 0x20 DUP3 ADD SWAP1 POP SWAP3 SWAP2 POP POP JUMP JUMPDEST PUSH32 0x536F6D656E7465206F206F776E657220706F6465206578656375746172206573 PUSH0 DUP3 ADD MSTORE PUSH32 0x7361206F7065726163616F000000000000000000000000000000000000000000 PUSH1 0x20 DUP3 ADD MSTORE POP JUMP JUMPDEST PUSH0 PUSH2 0x3BF PUSH1 0x2B DUP4 PUSH2 0x355 JUMP JUMPDEST SWAP2 POP PUSH2 0x3CA DUP3 PUSH2 0x365 JUMP JUMPDEST PUSH1 0x40 DUP3 ADD SWAP1 POP SWAP2 SWAP1 POP JUMP JUMPDEST PUSH0 PUSH1 0x20 DUP3 ADD SWAP1 POP DUP2 DUP2 SUB PUSH0 DUP4 ADD MSTORE PUSH2 0x3EC DUP2 PUSH2 0x3B3 JUMP JUMPDEST SWAP1 POP SWAP2 SWAP1 POP JUMP JUMPDEST PUSH32 0x4E487B7100000000000000000000000000000000000000000000000000000000 PUSH0 MSTORE PUSH1 0x11 PUSH1 0x4 MSTORE PUSH1 0x24 PUSH0 REVERT JUMPDEST PUSH0 PUSH2 0x42A DUP3 PUSH2 0x273 JUMP JUMPDEST SWAP2 POP PUSH32 0xFFFFFFFFFFFFFFFFFFFFFFFFFFFFFFFFFFFFFFFFFFFFFFFFFFFFFFFFFFFFFFFF DUP3 SUB PUSH2 0x45C JUMPI PUSH2 0x45B PUSH2 0x3F3 JUMP JUMPDEST JUMPDEST PUSH1 0x1 DUP3 ADD SWAP1 POP SWAP2 SWAP1 POP JUMP INVALID LOG2 PUSH5 0x6970667358 0x22 SLT KECCAK256 MULMOD RETURN CALLER DUP9 0xB6 LOG3 0xBF SWAP8 0xD9 0xCB SWAP10 0xC5 COINBASE 0x21 0xB0 DUP15 PUSH6 0xB9AC26DB832C TSTORE 0x2C 0xCE 0x23 PUSH23 0xA4E514CA64736F6C634300081800330000000000000000 "
				},
				"gasEstimates": {
					"creation": {
						"codeDepositCost": "236200",
						"executionCost": "28214",
						"totalCost": "264414"
					},
					"external": {
						"changeOwner(address)": "54956",
						"getOwner()": "2515",
						"owner()": "2527",
						"visitas()": "2403"
					}
				},
				"methodIdentifiers": {
					"changeOwner(address)": "a6f9dae1",
					"getOwner()": "893d20e8",
					"owner()": "8da5cb5b",
					"visitas()": "658cb40b"
				}
			},
			"storageLayout": {
				"storage": [
					{
						"astId": 156,
						"contract": "atividade_07_02_2024/owner.sol:Owner",
						"label": "owner",
						"offset": 0,
						"slot": "0",
						"type": "t_address"
					},
					{
						"astId": 158,
						"contract": "atividade_07_02_2024/owner.sol:Owner",
						"label": "visitas",
						"offset": 0,
						"slot": "1",
						"type": "t_uint256"
					}
				],
				"types": {
					"t_address": {
						"encoding": "inplace",
						"label": "address",
						"numberOfBytes": "20"
					},
					"t_uint256": {
						"encoding": "inplace",
						"label": "uint256",
						"numberOfBytes": "32"
					}
				}
			},
			"userdoc": {
				"kind": "user",
				"methods": {},
				"version": 1
			}
		}
	}
}